{
  "contractName": "Lottery",
  "abi": [
    {
      "inputs": [
        {
          "internalType": "contract AshToken",
          "name": "_ashToken",
          "type": "address"
        }
      ],
      "stateMutability": "nonpayable",
      "type": "constructor"
    },
    {
      "inputs": [],
      "name": "ashToken",
      "outputs": [
        {
          "internalType": "contract AshToken",
          "name": "",
          "type": "address"
        }
      ],
      "stateMutability": "view",
      "type": "function",
      "constant": true
    },
    {
      "inputs": [],
      "name": "manager",
      "outputs": [
        {
          "internalType": "address",
          "name": "",
          "type": "address"
        }
      ],
      "stateMutability": "view",
      "type": "function",
      "constant": true
    },
    {
      "inputs": [],
      "name": "name",
      "outputs": [
        {
          "internalType": "string",
          "name": "",
          "type": "string"
        }
      ],
      "stateMutability": "view",
      "type": "function",
      "constant": true
    },
    {
      "inputs": [
        {
          "internalType": "uint256",
          "name": "",
          "type": "uint256"
        }
      ],
      "name": "players",
      "outputs": [
        {
          "internalType": "address",
          "name": "",
          "type": "address"
        }
      ],
      "stateMutability": "view",
      "type": "function",
      "constant": true
    },
    {
      "inputs": [],
      "name": "enterLottery",
      "outputs": [],
      "stateMutability": "nonpayable",
      "type": "function"
    },
    {
      "inputs": [],
      "name": "pickWinner",
      "outputs": [],
      "stateMutability": "nonpayable",
      "type": "function"
    },
    {
      "inputs": [],
      "name": "getPlayers",
      "outputs": [
        {
          "internalType": "address[]",
          "name": "",
          "type": "address[]"
        }
      ],
      "stateMutability": "view",
      "type": "function",
      "constant": true
    }
  ],
  "bytecode": "0x60806040526040518060400160405280601081526020017f4c6f747465727920436f6e74726163740000000000000000000000000000000081525060009080519060200190620000519291906200011f565b506000600455678ac7230489e800006005553480156200007057600080fd5b5060405162000fb738038062000fb783398181016040528101906200009691906200024d565b80600160006101000a81548173ffffffffffffffffffffffffffffffffffffffff021916908373ffffffffffffffffffffffffffffffffffffffff16021790555033600260006101000a81548173ffffffffffffffffffffffffffffffffffffffff021916908373ffffffffffffffffffffffffffffffffffffffff16021790555050620002e4565b8280546200012d90620002ae565b90600052602060002090601f0160209004810192826200015157600085556200019d565b82601f106200016c57805160ff19168380011785556200019d565b828001600101855582156200019d579182015b828111156200019c5782518255916020019190600101906200017f565b5b509050620001ac9190620001b0565b5090565b5b80821115620001cb576000816000905550600101620001b1565b5090565b600080fd5b600073ffffffffffffffffffffffffffffffffffffffff82169050919050565b60006200020182620001d4565b9050919050565b60006200021582620001f4565b9050919050565b620002278162000208565b81146200023357600080fd5b50565b60008151905062000247816200021c565b92915050565b600060208284031215620002665762000265620001cf565b5b6000620002768482850162000236565b91505092915050565b7f4e487b7100000000000000000000000000000000000000000000000000000000600052602260045260246000fd5b60006002820490506001821680620002c757607f821691505b60208210811415620002de57620002dd6200027f565b5b50919050565b610cc380620002f46000396000f3fe608060405234801561001057600080fd5b506004361061007d5760003560e01c80638b5b9ccc1161005b5780638b5b9ccc146100c857806390cb32ed146100e6578063c1af578514610104578063f71d96cb1461010e5761007d565b806306fdde0314610082578063481c6a75146100a05780635d495aea146100be575b600080fd5b61008a61013e565b604051610097919061068c565b60405180910390f35b6100a86101cc565b6040516100b591906106ef565b60405180910390f35b6100c66101f2565b005b6100d061036c565b6040516100dd91906107c8565b60405180910390f35b6100ee6103fa565b6040516100fb9190610849565b60405180910390f35b61010c610420565b005b6101286004803603810190610123919061089f565b610540565b60405161013591906106ef565b60405180910390f35b6000805461014b906108fb565b80601f0160208091040260200160405190810160405280929190818152602001828054610177906108fb565b80156101c45780601f10610199576101008083540402835291602001916101c4565b820191906000526020600020905b8154815290600101906020018083116101a757829003601f168201915b505050505081565b600260009054906101000a900473ffffffffffffffffffffffffffffffffffffffff1681565b600260009054906101000a900473ffffffffffffffffffffffffffffffffffffffff1673ffffffffffffffffffffffffffffffffffffffff163373ffffffffffffffffffffffffffffffffffffffff161461024c57600080fd5b60006003805490501161025e57600080fd5b600060038054905061026e61057f565b610278919061095c565b9050600160009054906101000a900473ffffffffffffffffffffffffffffffffffffffff1673ffffffffffffffffffffffffffffffffffffffff1663a9059cbb600383815481106102cc576102cb61098d565b5b9060005260206000200160009054906101000a900473ffffffffffffffffffffffffffffffffffffffff166004546040518363ffffffff1660e01b81526004016103179291906109cb565b6020604051808303816000875af1158015610336573d6000803e3d6000fd5b505050506040513d601f19601f8201168201806040525081019061035a9190610a2c565b506003600061036991906105b5565b50565b606060038054806020026020016040519081016040528092919081815260200182805480156103f057602002820191906000526020600020905b8160009054906101000a900473ffffffffffffffffffffffffffffffffffffffff1673ffffffffffffffffffffffffffffffffffffffff16815260200190600101908083116103a6575b5050505050905090565b600160009054906101000a900473ffffffffffffffffffffffffffffffffffffffff1681565b600160009054906101000a900473ffffffffffffffffffffffffffffffffffffffff1673ffffffffffffffffffffffffffffffffffffffff166323b872dd33306005546040518463ffffffff1660e01b815260040161048193929190610a59565b6020604051808303816000875af11580156104a0573d6000803e3d6000fd5b505050506040513d601f19601f820116820180604052508101906104c49190610a2c565b506003339080600181540180825580915050600190039060005260206000200160009091909190916101000a81548173ffffffffffffffffffffffffffffffffffffffff021916908373ffffffffffffffffffffffffffffffffffffffff1602179055506005546004546105389190610abf565b600481905550565b6003818154811061055057600080fd5b906000526020600020016000915054906101000a900473ffffffffffffffffffffffffffffffffffffffff1681565b60004442600360405160200161059793929190610c54565b6040516020818303038152906040528051906020012060001c905090565b50805460008255906000526020600020908101906105d391906105d6565b50565b5b808211156105ef5760008160009055506001016105d7565b5090565b600081519050919050565b600082825260208201905092915050565b60005b8381101561062d578082015181840152602081019050610612565b8381111561063c576000848401525b50505050565b6000601f19601f8301169050919050565b600061065e826105f3565b61066881856105fe565b935061067881856020860161060f565b61068181610642565b840191505092915050565b600060208201905081810360008301526106a68184610653565b905092915050565b600073ffffffffffffffffffffffffffffffffffffffff82169050919050565b60006106d9826106ae565b9050919050565b6106e9816106ce565b82525050565b600060208201905061070460008301846106e0565b92915050565b600081519050919050565b600082825260208201905092915050565b6000819050602082019050919050565b61073f816106ce565b82525050565b60006107518383610736565b60208301905092915050565b6000602082019050919050565b60006107758261070a565b61077f8185610715565b935061078a83610726565b8060005b838110156107bb5781516107a28882610745565b97506107ad8361075d565b92505060018101905061078e565b5085935050505092915050565b600060208201905081810360008301526107e2818461076a565b905092915050565b6000819050919050565b600061080f61080a610805846106ae565b6107ea565b6106ae565b9050919050565b6000610821826107f4565b9050919050565b600061083382610816565b9050919050565b61084381610828565b82525050565b600060208201905061085e600083018461083a565b92915050565b600080fd5b6000819050919050565b61087c81610869565b811461088757600080fd5b50565b60008135905061089981610873565b92915050565b6000602082840312156108b5576108b4610864565b5b60006108c38482850161088a565b91505092915050565b7f4e487b7100000000000000000000000000000000000000000000000000000000600052602260045260246000fd5b6000600282049050600182168061091357607f821691505b60208210811415610927576109266108cc565b5b50919050565b7f4e487b7100000000000000000000000000000000000000000000000000000000600052601260045260246000fd5b600061096782610869565b915061097283610869565b9250826109825761098161092d565b5b828206905092915050565b7f4e487b7100000000000000000000000000000000000000000000000000000000600052603260045260246000fd5b6109c581610869565b82525050565b60006040820190506109e060008301856106e0565b6109ed60208301846109bc565b9392505050565b60008115159050919050565b610a09816109f4565b8114610a1457600080fd5b50565b600081519050610a2681610a00565b92915050565b600060208284031215610a4257610a41610864565b5b6000610a5084828501610a17565b91505092915050565b6000606082019050610a6e60008301866106e0565b610a7b60208301856106e0565b610a8860408301846109bc565b949350505050565b7f4e487b7100000000000000000000000000000000000000000000000000000000600052601160045260246000fd5b6000610aca82610869565b9150610ad583610869565b9250827fffffffffffffffffffffffffffffffffffffffffffffffffffffffffffffffff03821115610b0a57610b09610a90565b5b828201905092915050565b6000819050919050565b610b30610b2b82610869565b610b15565b82525050565b600081549050919050565b600081905092915050565b60008190508160005260206000209050919050565b610b6a816106ce565b82525050565b6000610b7c8383610b61565b60208301905092915050565b60008160001c9050919050565b600073ffffffffffffffffffffffffffffffffffffffff82169050919050565b6000610bc8610bc383610b88565b610b95565b9050919050565b6000610bdb8254610bb5565b9050919050565b6000600182019050919050565b6000610bfa82610b36565b610c048185610b41565b9350610c0f83610b4c565b8060005b83811015610c4757610c2482610bcf565b610c2e8882610b70565b9750610c3983610be2565b925050600181019050610c13565b5085935050505092915050565b6000610c608286610b1f565b602082019150610c708285610b1f565b602082019150610c808284610bef565b915081905094935050505056fea2646970667358221220160f804514706ce4f1e53496907b43853cdc86ab3d1d910b1f962fbeb4fc97c664736f6c634300080b0033",
  "immutableReferences": {},
  "source": "// SPDX-License-Identifier: MIT\r\npragma solidity >=0.4.22 <0.9.0;\r\n\r\nimport './AshToken.sol';\r\n\r\ncontract Lottery {\r\n\r\n    string public name = 'Lottery Contract';\r\n    AshToken public ashToken;\r\n    address public manager;\r\n    address[] public players;\r\n    uint256 totalMoney = 0;\r\n    uint256 amount = 10000000000000000000;\r\n\r\n    constructor(AshToken _ashToken) {\r\n        ashToken = _ashToken;\r\n        manager = msg.sender;\r\n    }\r\n\r\n    modifier restriction(){\r\n        require(msg.sender == manager);\r\n        _;\r\n    }\r\n\r\n    function enterLottery() public {\r\n        //require(_amount == 100000000000000000000);\r\n        //ashToken.approve(address(this), amount);\r\n        ashToken.transferFrom(msg.sender, address(this), amount);\r\n        players.push(msg.sender);\r\n        totalMoney = totalMoney + amount;\r\n    }\r\n\r\n    function random() private view returns (uint) {\r\n        return uint(keccak256(abi.encodePacked(block.difficulty, block.timestamp, players)));\r\n    }\r\n    \r\n    function pickWinner() public restriction {\r\n        require(players.length > 0);\r\n        uint index = random() % players.length;\r\n        ashToken.transfer(players[index], totalMoney);\r\n        delete players;\r\n    }\r\n\r\n    function getPlayers() public view returns(address[] memory) {\r\n        return players;\r\n    }\r\n}",
  "sourcePath": "/Users/ashmit/Desktop/Crypto/contracts/Lottery.sol",
  "compiler": {
    "name": "solc",
    "version": "0.8.11+commit.d7f03943.Emscripten.clang"
  },
  "schemaVersion": "3.4.4",
  "updatedAt": "2022-01-31T14:13:51.797Z",
  "networkType": "ethereum",
  "devdoc": {
    "kind": "dev",
    "methods": {},
    "version": 1
  },
  "userdoc": {
    "kind": "user",
    "methods": {},
    "version": 1
  }
}